:100000000C940A010C942B010C942B010C942B01E1
:100010000C942B010C942B010C942B010C942B01B0
:100020000C942B010C942B010C942B010C942B01A0
:100030000C942B010C942B010C942B010C942B0190
:100040000C942B010C942B010C942B010C942B0180
:100050000C942B010C942B010C942B010C94130287
:100060000C942B010C942B010C942B010C942B0160
:100070000C942B010C942B010C942B010C942B0150
:100080000C942B010C942B010C942B010C942B0140
:100090000C942B010C942B010C942B010C942B0130
:1000A0000C942B010C942B010C942B010C942B0120
:1000B0000C942B010C942B010C942B010C942B0110
:1000C0000C942B010C942B010C942B010C942B0100
:1000D0000C942B010C942B010C942B010C942B01F0
:1000E0000C942B010C94A9010C9462010C948D01C9
:1000F0000C947C010C9483010C94AF010C9480014E
:100100000C94A5010C945D010C949B010C9493013B
:100110000C9478010C94A1010C94B3010C94890106
:100120000C9497010C947401000022002500280013
:100130002B002E00310034000201000005010801EF
:100140000B0105050505070508080808020202025B
:100150000A0A080804040404010101010101010163
:100160000303030303030303040707070C0C0C0C2E
:100170000C0C0C0C02020202060606060606060617
:100180000B0B0B0B0B0B0B0B0102102020080810A4
:1001900020401020408002010201080402010102F7
:1001A00004081020408080402010080402018004D0
:1001B000020180402010080402010804020101022B
:1001C0000408102040800102040810204080000034
:1001D0000A0B02090C0D0E080703040100000000C1
:1001E000000000000000000000000000000000000F
:1001F00000000000000000000000121110000000CC
:1002000000000000000000000000000000000000EE
:100210000000000011241FBECFEFD1E2DEBFCDBF32
:1002200000E00CBF12E0A0E0B2E0EAE5F9E000E097
:100230000BBF02C007900D92A834B107D9F722E096
:10024000A8E4B2E001C01D92AB3BB207E1F70E9407
:100250005D020C94AB040C940000282F30E0F901EF
:10026000E253FE4F9491F901E857FE4F44912E5B03
:100270003E4FF9012491222309F435C0992311F14D
:1002800091509231F8F4E92FF0E08827E55BFE4FBA
:100290008F4F0C94A3047C0180015D0174017801EF
:1002A0006201830189018D01930197019B01A101E5
:1002B000A5016201A901AF01B301809180008F7790
:1002C00080938000E22FF0E0EE0FFF1FE85DFE4F0D
:1002D000A591B4918FB7F894EC91611148C0409505
:1002E0004E234C938FBF0895809180008F7DE8CF7F
:1002F00080918000877FE4CF84B58F7784BDE2CF83
:1003000084B58F7DFBCF8091B0008F778093B00054
:10031000D9CF8091B0008F7DF9CF809190008F77F9
:1003200080939000CFCF809190008F7DF9CF809106
:100330009000877FF5CF8091A0008F778093A000F9
:10034000C1CF8091A0008F7DF9CF8091A000877FE1
:10035000F5CF809120018F7780932001B3CF8091DA
:1003600020018F7DF9CF80912001877FF5CF4E2B23
:10037000B8CF3FB7F8948091B7029091B802A0919E
:10038000B902B091BA0226B5A89B05C02F3F19F05B
:100390000196A11DB11D3FBFBA2FA92F982F882705
:1003A000BC01CD01620F711D811D911D42E0660FE0
:1003B000771F881F991F4A95D1F708958F929F92B2
:1003C000AF92BF92CF92DF92EF92FF920E94B9015B
:1003D0004B015C0184E6C82ED12CE12CF12C0E944B
:1003E000B901681979098A099B09683E734081053A
:1003F0009105A8F321E0C21AD108E108F10888EEBE
:10040000880E83E0981EA11CB11CC114D104E10424
:10041000F10429F7FF90EF90DF90CF90BF90AF905D
:100420009F908F9008951F920F920FB60F921124F4
:100430002F933F938F939F93AF93BF938091B3027A
:100440009091B402A091B502B091B6023091B2027F
:1004500023E0230F2D3758F50196A11DB11D2093E0
:10046000B2028093B3029093B402A093B502B0930A
:10047000B6028091B7029091B802A091B902B091F2
:10048000BA020196A11DB11D8093B7029093B802E4
:10049000A093B902B093BA02BF91AF919F918F918F
:1004A0003F912F910F900FBE0F901F90189526E847
:1004B000230F0296A11DB11DD2CF789484B582601E
:1004C00084BD84B5816084BD85B5826085BD85B5F8
:1004D000816085BD80916E00816080936E00109276
:1004E00081008091810082608093810080918100F1
:1004F0008160809381008091800081608093800082
:100500008091B10084608093B1008091B0008160DF
:100510008093B000809191008260809391008091DF
:100520009100816080939100809190008160809320
:1005300090008091A10082608093A1008091A10031
:1005400081608093A1008091A00081608093A000D1
:10055000809121018260809321018091210181603D
:1005600080932101809120018160809320018091FE
:100570007A00846080937A0080917A008260809310
:100580007A0080917A00816080937A0080917A006D
:10059000806880937A001092C1008FEF81B987B98B
:1005A00080930A0184B983BB61E087E20E942D0138
:1005B0000E94DE0160E087E20E942D01C0E710E4A6
:1005C000D0EF08E071EFD72EE4EFCE2EF8EFBF2E7C
:1005D000A2EFAA2EB0E8FB2E82E7982E98E7892E8C
:1005E00024E0E22E34E7732E8091B0029091B102A4
:1005F0004197D0F10AE412E0C2E0D2E061E1E62ED8
:10060000F12C0E5F1F4F2296809100029091010203
:10061000E816F90608F086C1F80181A185B980A124
:1006200080930B0189A182B988A188B961E089E230
:100630000E942D01FFEF21EE44E0F15020404040A8
:10064000E1F700C0000060E089E20E942D018FEF19
:1006500091EEE4E081509040E040E1F700C00000FE
:10066000FFEFEF1AFF0ACDCF61E088E20E942D0173
:100670008091AE029091AF02FC01EE0FFF1FEA5E87
:10068000FD4F20813181203440E7340709F42EC129
:1006900008F047C02630310509F413C108F52230AF
:1006A000310509F4F6C068F42115310509F482C05A
:1006B0002130310509F4E5C061E087E20E942D0197
:1006C000ACC001962430310509F4F3C008F4E9C048
:1006D000880F991FFC01EA5EFD4F8181806570C023
:1006E0002430F0E73F0709F40BC158F4213080E7CC
:1006F000380709F408C122303047F1F6C2B982E068
:10070000FAC02031E0E73E0709F4F7C02032F0E7F5
:100710003F0709F4EEC02830304771F6C2B908B976
:10072000DAC0283080EF380709F4FAC010F5211537
:10073000E2E73E0709F4D5C060F4203840E734070B
:1007400009F4D1C02115314709F0B6CF81E782B94C
:10075000C1C0211598E7390709F4BBC02430E0EF88
:100760003E0709F4DBC02115344709F0A5CF72B864
:10077000B1C0211541EF340709F4CCC058F420343E
:1007800090EF390709F4C8C02038304F09F094CFF2
:10079000D2B9AAC02115F4EF3F0709F4B9C0211559
:1007A00048EF340709F4B2C02115324F09F084CF65
:1007B000A2B890C0880F991FFC01E85EFD4F8181AF
:1007C00082B9E091AE02F091AF02EE0FFF1FE85E3A
:1007D000FD4F808188B98091AE029091AF02209147
:1007E000000230910102A9014F5F5F4F5093010257
:1007F00040930002220F331FF901E65BFD4FDC013D
:10080000AA0FBB1FA85EBD4F2D913C913183208361
:1008100002969093AF028093AE028091490285B90F
:100820008091480280930B0161E089E20E942D01D2
:100830009FEFE1EEF4E09150E040F040E1F700C0BE
:10084000000060E089E20E942D012FEF41EE84E07C
:10085000215040408040E1F700C0000080914802F4
:1008600090914902019690934902809348028091A9
:10087000B0029091B10201969093B1028093B002C0
:10088000B3CE880F991FFC01E85EFD4F8181806126
:1008900097CF880F991FFC01E85EFD4F8181806230
:1008A0008FCF880F991FFC01EA5EFD4F8181806325
:1008B00087CF880F991FFC01EA5EFD4F818180641C
:1008C0007FCF880F991FFC01E85EFD4F8181806614
:1008D00077CF82B818B88091AE029091AF0201969E
:1008E00098CF92B8F7CFC2B9F8B8F5CFC2B918B956
:1008F000F2CFC2B980E288B9EECFC2B980E1FBCFB6
:10090000C2B9E8B8E8CFC2B981E0F5CFB2B8E2CF5A
:10091000C2B8E0CFD2B8DECFD2B9E9CFD2B9F1CFE9
:10092000D2B9FDCE60E088E20E942D010E94DE0176
:10093000C0E0D0E060E087E20E942D012097D1F373
:100940000E940000F7CFEE0FFF1F881F8BBF07909C
:0A095000F691E02D1994F894FFCF02
:10095A001100010002000000030004000500060067
:10096A00070008000900020013000100140008F043
:10097A0003001500017002001600010017000300B1
:10098A00180001700200190003001A0000780074B0
:08099A000072807000F800F407
:00000001FF
